:0300000002048770
:0C048700787FE4F6D8FD75812E0204CECB
:10030700E4F5081206D50508E50875F03284E5F02E
:1003170070401205138F0E8E0D8D0C8C0BE4FFFEB3
:100327007DE07C41AB0EAA0DA90CA80B1201096058
:10033700064004D2948002C294E4FFFE7D207C41F3
:10034700AB0EAA0DA90CA80B1200031201C08E094F
:100357008F0AC3E509648094805010C3E4950AF5B9
:100367000AE49509F509750F408003E4F50FAE0916
:10037700AF0A7C037DE812026E741E2FF8E6F510B3
:10038700AE09AF0A7C037DE812026EAA04AB057DB5
:10039700647C00AF03AE0212026E741E2FF8E6F5FE
:1003A700117D647C00AF03AE0212026EAA04AB0596
:1003B7007D0A7C00AF03AE0212026E741E2FF8E6B0
:1003C7004480F5127D0A7C00AF03AE0212026E7400
:1003D7001E2DF8E6F5137B007A00790F7D041203D2
:0403E700EB02030D15
:1006A800C2B77F4B7E001206CAD2B77F027E000215
:0206B80006CA70
:10058E00E4F51B30B716C3E51B94147480948050A9
:10059E000B051B7F017E001206CA80E7C3E51B9484
:1005AE00147480948040037F0122E4F51B20B7165B
:1005BE00C3E51B941474809480500B051B7F017E41
:1005CE00001206CA80E7C3E51B9414748094804021
:0605DE00037F01227F00F3
:0105E40022F4
:10065600E4F51DC2B70000D2B7000030B705751D1E
:0F066600018003E4F51D7F057E001206CAAF1D5B
:010675002262
:10062A00E4F51BF51CFFF51BE51BC39408748094C5
:10063A00805016120656EFC43333335480FEE51C3D
:0B064A00C3134EF51C051B80DFAF1C26
:010655002282
:0205E5008F1B6A
:1005E700E4F51CF51DF51CC3E51C94087480948084
:1005F7005030E51B5401F51DE51BC313F51BE51D25
:10060700600FC2B70000D2B77F067E001206CA800D
:100617000DC2B77F067E001206CAD2B70000051CBE
:0206270080C58C
:0106290022AE
:1006BA001206A812058E7FCC1205E57F440205E5D5
:0606D5001206A802058ECA
:10051300E4FFF518F519F51A1206BA1206A8120522
:100523008E7FCC1205E57FBE1205E512062A8F18D1
:1005330012062AEFFE7C00E42518F51AEC3EF519A5
:1005430054F8FEEEB4F821E51AF4FFE519F4FEEFD2
:100553002401F51AE43EF519FCAD1AE4120187E40F
:10056300FBFA798078BD800FAC19AD1AE4120187CC
:10057300E4FBFA7980783D1200038F178E168D15F0
:0A0583008C14AF17AE16AD15AC14C2
:01058D00224B
:10069400111E3F065B4F666D7D077F6F777C395E69
:0306A40079710069
:0603EB008B148A1589162F
:1003F100E4F517ED14F518F517C3E51794087480A3
:1004010094804003020486C374079517B408005012
:100411004D900419F82828730204310204350204AE
:100421003902043D02044102044902045102045903
:10043100D2A4800ED2A48012D2A48016D2A4801A93
:10044100C2A4D2A3D2A28016C2A4D2A3C2A2800EF9
:10045100C2A4C2A3D2A28006C2A4C2A3C2A2C3E5FF
:10046100179518FFE49400AB14AA15A9168F82F50D
:1004710083120241F5807F647E001206CAE4F58092
:0504810005170203FA5B
:010486002253
:0B06CA00EF1FAC0670011E4C70F62202
:10067600D3EF9400EE940040147D6E7C00ED1D7067
:0D068600011CED4C70F7EF1F70E61E80E3C5
:010693002244
:10000300EC4D6011E8497017ED33EC3304600DE4F7
:10001300FCFFFEFD22E933E8330470F802022C12E0
:1000230001F758046009E4CC2481500628500902E2
:100033000236284003020233C0E0EB4A7044B98021
:1000430006D0E0FB020222EF4E701CBD8008EBFFDE
:10005300EAFEE9FD80EBE98DF0A4FEE5F00200EC99
:10006300E9CDF9EAFEEBFFEF89F0A4FCE5F0CE89D8
:10007300F0A42EFFE435F0CD89F0A42DFEE435F095
:100083008067EF4E7005BD80D780C3EF8BF0A4ACC3
:10009300F0EE8BF0A42CFCE435F0F8EF8AF0A42CFE
:1000A300E5F038FCE433CB8DF0A42CFCE5F03BF811
:1000B300EE8AF0A42CFCE5F038F8E433CF89F0A401
:1000C3002CFCE5F038CF3400CE89F0A42FFFE5F007
:1000D3003EFEE433C98DF0A42EFEE5F039CD8AF05F
:1000E300A42FFFE5F03EFEE43DFD33D0E0FB5007D7
:1000F3000BBB000F020236EC2CFCEF33FFEE33FE9A
:06010300ED33FD02020EC7
:1001090074F8CC6480CCC86480C8F58204604FC39D
:10011900EB9FF5F0EA9E42F0E99D42F0E89C45F03C
:10012900603C501DE5825FFFE582D313CB5BCBF4C6
:100139002B5582FB50280ABA002409B900200880EF
:100149001DE5825BFBE582D313CF5FCFF4C3132F89
:100159005582FF50090EBE00050DBD00010CC3EB11
:100169009FF5F0EA9E42F0E99D42F0E89C45F06077
:0901790007CC4820E701B3EC2299
:1001820075F020800E75F010800575F0087D007EF8
:10019200007F003392D530D5031202A4EC33401015
:1001A200EF33FFEE33FEED33FDEC33FCD5F0ED2201
:0E01B200E5F0247EA2D513CC92E7CDCEFF223D
:1001C000EDD2E7CD33EC3392D524814006E4FFFE37
:1001D000FDFC22FCE4CFCECDCC24E0501174FF8096
:1001E000EDC3CC13CCCD13CDCE13CECF13CF047033
:0701F000F030D5DE0202A48D
:1001F700E9D2E7C933E833F892D5EDD2E7CD33EC4E
:0702070033FC5002B2D522C6
:10020E00EC30E7100FBF000C0EBE00080DBD000451
:10021E000BEB6014A2D5EB13FCED92E7FD2274FFFD
:10022E00FCFDFEFF22E480F8A2D574FF13FC7D8056
:03023E00E480EF6A
:10049300020307E493A3F8E493A34003F68001F275
:1004A30008DFF48029E493A3F85407240CC8C3336A
:1004B300C4540F4420C8834004F456800146F6DF39
:1004C300E4800B0102040810204080900694E47E2F
:1004D300019360BCA3FF543F30E509541FFEE4932E
:1004E300A360010ECF54C025E060A840B8E493A3F5
:1004F300FAE493A3F8E493A3C8C582C8CAC583CA20
:10050300F0A3C8C582C8CAC583CADFE9DEE780BED7
:0106A7000052
:10024100BB010CE58229F582E5833AF583E0225072
:1002510006E92582F8E622BBFE06E92582F8E222BC
:0D026100E58229F582E5833AF583E49322D6
:10026E00C2D5EC30E709B2D5E4C39DFDE49CFCEEAB
:10027E0030E715B2D5E4C39FFFE49EFE1202B2C36F
:10028E00E49DFDE49CFC80031202B230D507C3E46A
:06029E009FFFE49EFE221A
:0E02A400C3E49FFFE49EFEE49DFDE49CFC226B
:1002B200BC000BBE0029EF8DF084FFADF022E4CC30
:1002C200F875F008EF2FFFEE33FEEC33FCEE9DECF9
:1002D200984005FCEE9DFE0FD5F0E9E4CEFD22ED3F
:1002E200F8F5F0EE8420D21CFEADF075F008EF2F89
:1002F200FFED33FD4007985006D5F0F222C398FD7A
:050302000FD5F0EA2216
:00000001FF
