:0300000002026891
:0C026800787FE4F6D8FD7581310202AF0A
:10047500E4F5201204D37F1F7E00D3EF941EEE64B3
:0D0485008094804004D29480F1C29480EDF8
:1004A600C2B77F4B7E001204C8D2B77F027E00021D
:0204B60004C878
:10036F00E4F52630B716C3E52694147480948050B4
:10037F000B05267F017E001204C880E7C3E5269493
:10038F00147480948040037F0122E4F52620B71671
:10039F00C3E526941474809480500B05267F017E4C
:1003AF00001204C880E7C3E526941474809480403B
:0603BF00037F01227F0014
:0103C5002215
:10043700E4F531C2B70000D2B7000030B705753117
:0F044700018003E4F5317F057E001204C8AF3158
:010456002283
:10040B00E4F52FF530FFF52FE52FC3940874809496
:10041B00805016120437EFC43333335480FEE5306B
:0B042B00C3134EF530052F80DFAF300B
:0104360022A3
:0203C6008F2C7A
:1003C800E4F52DF52EF52DC3E52D94087480948061
:1003D8005030E52C5401F52EE52CC313F52CE52EF1
:1003E800600FC2B70000D2B77F067E001204C88033
:1003F8000DC2B77F067E001204C8D2B70000052DD3
:0204080080C5AD
:01040A0022CF
:1004B8001204A612036F7FCC1203C67F440203C640
:0604D3001204A602036FF3
:1002F400E4FFF51DF51EF51F1204B81204A612033F
:100304006F7FCC1203C67FBE1203C612040B8F1D6F
:1003140012040BEFFE7C00E4251DF51FEC3EF51ED8
:1003240054F8FEEEB4F821E51FF4FFE51EF4FEEFE9
:100334002401F51FE43EF51EFCAD1FE412010EE49A
:10034400FBFA798078BD800FAC1EAD1FE412010E5C
:10035400E4FBFA7980783D1200038F1C8E1B8D1A02
:0A0364008C19AF1CAE1BAD1AAC19CA
:01036E00226C
:1004920011083F065B4F666D7D077F6F777C395E83
:0304A2007971006D
:0601CC008B278A28892917
:1001D200E4F52AED14F52BF52AC3E52A9408748078
:1001E20094804003020267C37407952AB408005042
:1001F2004D9001FAF8282873020212020216020236
:100202001A02021E02022202022A02023202023AE8
:10021200D2A4800ED2A48012D2A48016D2A4801AB4
:10022200C2A4D2A3D2A28016C2A4D2A3C2A2800E1A
:10023200C2A4C2A3D2A28006C2A4C2A3C2A2C3E520
:100242002A952BFFE49400AB27AA28A9298F82F5CF
:1002520083120191F5807F647E001204C8E4F58068
:05026200052A0201DB8A
:010267002274
:0B04C800EF1FAC0670011E4C70F62206
:10045700D3EF9400EE940040147D6E7C00ED1D7088
:0D046700011CED4C70F7EF1F70E61E80E3E6
:010474002265
:10000300EC4D6011E8497017ED33EC3304600DE4F7
:10001300FCFFFEFD22E933E8330470F802017C1291
:10002300014758046009E4CC248150062850090292
:100033000186284003020183C0E0EB4A7044B98083
:1000430006D0E0FB020172EF4E701CBD8008EBFF8F
:10005300EAFEE9FD80EBE98DF0A4FEE5F00200EC99
:10006300E9CDF9EAFEEBFFEF89F0A4FCE5F0CE89D8
:10007300F0A42EFFE435F0CD89F0A42DFEE435F095
:100083008067EF4E7005BD80D780C3EF8BF0A4ACC3
:10009300F0EE8BF0A42CFCE435F0F8EF8AF0A42CFE
:1000A300E5F038FCE433CB8DF0A42CFCE5F03BF811
:1000B300EE8AF0A42CFCE5F038F8E433CF89F0A401
:1000C3002CFCE5F038CF3400CE89F0A42FFFE5F007
:1000D3003EFEE433C98DF0A42EFEE5F039CD8AF05F
:1000E300A42FFFE5F03EFEE43DFD33D0E0FB5007D7
:1000F3000BBB000F020186EC2CFCEF33FFEE33FE4B
:06010300ED33FD02015E78
:1001090075F020800E75F010800575F0087D007E71
:10011900007F003392D530D5031201BEEC33401075
:10012900EF33FFEE33FEED33FDEC33FCD5F0ED227A
:0E013900E5F0247EA2D513CC92E7CDCEFF22B6
:10014700E9D2E7C933E833F892D5EDD2E7CD33ECFE
:0701570033FC5002B2D52277
:10015E00EC30E7100FBF000C0EBE00080DBD000402
:10016E000BEB6014A2D5EB13FCED92E7FD2274FFAE
:10017E00FCFDFEFF22E480F8A2D574FF13FC7D8007
:03018E00E480EF1B
:10027400020475E493A3F8E493A34003F68001F227
:1002840008DFF48029E493A3F85407240CC8C3338B
:10029400C4540F4420C8834004F456800146F6DF5A
:1002A400E4800B0102040810204080900492E47E54
:1002B400019360BCA3FF543F30E509541FFEE4934F
:1002C400A360010ECF54C025E060A840B8E493A316
:1002D400FAE493A3F8E493A3C8C582C8CAC583CA41
:1002E400F0A3C8C582C8CAC583CADFE9DEE780BEF9
:0104A5000056
:10019100BB010CE58229F582E5833AF583E0225023
:1001A10006E92582F8E622BBFE06E92582F8E2226D
:0D01B100E58229F582E5833AF583E4932287
:0E01BE00C3E49FFFE49EFEE49DFDE49CFC2252
:00000001FF
