:030000000203896F
:0C038900787FE4F6D8FD7581320203D0C5
:1002F300E4F5191205D7751A00751B1FAE1AAF1B4B
:100303007C037DE81201BE74082FF8E6F51DAE1AD2
:10031300AF1B7C037DE81201BEAA04AB057D647CA0
:1003230000AF03AE021201BE74082FF8E6F51E7D7E
:10033300647C00AF03AE021201BEAA04AB057D0AC2
:100343007C00AF03AE021201BE74082FF8E64480AE
:10035300F51F7D0A7C00AF03AE021201BE74082DA7
:10036300F8E6F5207B007A00791C7D04120257D34E
:10037300E51B941EE51A648094804005D294020222
:06038300FFC2940202FF1C
:1005AA00C2B77F4B7E001205CCD2B77F027E000213
:0205BA0005CC6E
:10049000E4F52130B716C3E521941474809480509C
:1004A0000B05217F017E001205CC80E7C3E5219476
:1004B000147480948040037F0122E4F52120B71654
:1004C000C3E521941474809480500B05217F017E34
:1004D000001205CC80E7C3E5219414748094804019
:0604E000037F01227F00F2
:0104E60022F3
:10055800E4F532C2B70000D2B7000030B7057532F3
:0F056800018003E4F5327F057E001205CCAF322F
:010577002261
:10052C00E4F530F531FFF530E530C3940874809470
:10053C00805016120558EFC43333335480FEE53126
:0B054C00C3134EF531053080DFAF31E6
:010557002281
:0204E7008F2D57
:1004E900E4F52EF52FF52EC3E52E9408748094803B
:1004F9005030E52D5401F52FE52DC313F52DE52FCA
:10050900600FC2B70000D2B77F067E001205CC800B
:100519000DC2B77F067E001205CCD2B70000052EAA
:0205290080C58B
:01052B0022AD
:1005BC001205AA1204907FCC1204E77F440204E7D0
:0605D7001205AA020490C7
:10041500E4FFF52AF52BF52C1205BC1205AA1204EA
:10042500907FCC1204E77FBE1204E712052C8F2AB9
:1004350012052CEFFE7C00E4252AF52CEC3EF52B6D
:1004450054F8FEEEB4F821E52CF4FFE52BF4FEEFAD
:100455002401F52CE43EF52BFCAD2CE412010EE451
:10046500FBFA798078BD800FAC2BAD2CE412010E20
:10047500E4FBFA7980783D1200038F298E288D27B9
:0A0485008C26AF29AE28AD27AC2667
:01048F00224A
:1005960011083F065B4F666D7D077F6F777C395E7E
:0305A60079710068
:060257008B218A2289239D
:10025D00E4F524ED14F525F524C3E5249408748004
:10026D00948040030202F2C374079524B408005031
:10027D004D900285F828287302029D0202A1020208
:10028D00A50202A90202AD0202B50202BD0202C51B
:10029D00D2A4800ED2A48012D2A48016D2A4801A29
:1002AD00C2A4D2A3D2A28016C2A4D2A3C2A2800E8F
:1002BD00C2A4C2A3D2A28006C2A4C2A3C2A2C3E595
:1002CD00249525FFE49400AB21AA22A9238F82F562
:1002DD0083120191F5807F647E001205CCE4F580D8
:0502ED00052402026679
:0102F20022E9
:0B05CC00EF1FAC0670011E4C70F62201
:10057800D3EF9400EE940040147D6E7C00ED1D7066
:0D058800011CED4C70F7EF1F70E61E80E3C4
:010595002243
:10000300EC4D6011E8497017ED33EC3304600DE4F7
:10001300FCFFFEFD22E933E8330470F802017C1291
:10002300014758046009E4CC248150062850090292
:100033000186284003020183C0E0EB4A7044B98083
:1000430006D0E0FB020172EF4E701CBD8008EBFF8F
:10005300EAFEE9FD80EBE98DF0A4FEE5F00200EC99
:10006300E9CDF9EAFEEBFFEF89F0A4FCE5F0CE89D8
:10007300F0A42EFFE435F0CD89F0A42DFEE435F095
:100083008067EF4E7005BD80D780C3EF8BF0A4ACC3
:10009300F0EE8BF0A42CFCE435F0F8EF8AF0A42CFE
:1000A300E5F038FCE433CB8DF0A42CFCE5F03BF811
:1000B300EE8AF0A42CFCE5F038F8E433CF89F0A401
:1000C3002CFCE5F038CF3400CE89F0A42FFFE5F007
:1000D3003EFEE433C98DF0A42EFEE5F039CD8AF05F
:1000E300A42FFFE5F03EFEE43DFD33D0E0FB5007D7
:1000F3000BBB000F020186EC2CFCEF33FFEE33FE4B
:06010300ED33FD02015E78
:1001090075F020800E75F010800575F0087D007E71
:10011900007F003392D530D5031201F4EC3340103F
:10012900EF33FFEE33FEED33FDEC33FCD5F0ED227A
:0E013900E5F0247EA2D513CC92E7CDCEFF22B6
:10014700E9D2E7C933E833F892D5EDD2E7CD33ECFE
:0701570033FC5002B2D52277
:10015E00EC30E7100FBF000C0EBE00080DBD000402
:10016E000BEB6014A2D5EB13FCED92E7FD2274FFAE
:10017E00FCFDFEFF22E480F8A2D574FF13FC7D8007
:03018E00E480EF1B
:100395000202F3E493A3F8E493A34003F68001F289
:1003A50008DFF48029E493A3F85407240CC8C33369
:1003B500C4540F4420C8834004F456800146F6DF38
:1003C500E4800B0102040810204080900596E47E2D
:1003D500019360BCA3FF543F30E509541FFEE4932D
:1003E500A360010ECF54C025E060A840B8E493A3F4
:1003F500FAE493A3F8E493A3C8C582C8CAC583CA1F
:10040500F0A3C8C582C8CAC583CADFE9DEE780BED6
:0105A9000051
:10019100BB010CE58229F582E5833AF583E0225023
:1001A10006E92582F8E622BBFE06E92582F8E2226D
:0D01B100E58229F582E5833AF583E4932287
:1001BE00C2D5EC30E709B2D5E4C39DFDE49CFCEE5C
:1001CE0030E715B2D5E4C39FFFE49EFE120202C3D0
:1001DE00E49DFDE49CFC800312020230D507C3E4CB
:0601EE009FFFE49EFE22CB
:0E01F400C3E49FFFE49EFEE49DFDE49CFC221C
:10020200BC000BBE0029EF8DF084FFADF022E4CCE0
:10021200F875F008EF2FFFEE33FEEC33FCEE9DECA9
:10022200984005FCEE9DFE0FD5F0E9E4CEFD22EDEF
:10023200F8F5F0EE8420D21CFEADF075F008EF2F39
:10024200FFED33FD4007985006D5F0F222C398FD2A
:050252000FD5F0EA22C7
:00000001FF
